:030000000209C929
:0C09C900787FE4F6D8FD75810C02080070
:100800007F381209897F011209A07F0C1209897FA4
:10081000011209A07F061209897F011209A07F0138
:100820001209897F011209A0E4FF1209D57F201265
:1008300009727F201209727F561209727F4C1209C9
:10084000727F541209727F411209727F4712097236
:100850007F451209727F3A120972E4FF12089675F9
:100860000B008F0C7F401209D57F201209727F2068
:10087000120972AE0BAF0C7C037DE81209647D6433
:1008800012095E7D0A12095EAE0BAF0C1209677F7A
:06089000641209A080C4FF
:10089600C294D29300C29200D29400EF700EC2941A
:1008A600D29300D29400C294C293800CC294D29385
:1008B60000D29400C294D29300D29400C294D293F0
:1008C600E4FF00EE25E0FED29400C2943093054387
:1008D600060180000FBF08EAE4FFEDC313FD309365
:1008E60005430580800000D29400C2940FBF08EA39
:1008F600EEB50505750B00F50C00D292D293D29495
:02090600AF0C34
:0109080022CC
:0709D500EF4480FF020989D5
:10095E00AE0BAF0C7C001209097C007D0A1209094E
:04096E00ED2430FF45
:100972008F081209B5EF70FAD2B0C2B1C2B28508BF
:070982008000D2B2C2B222D4
:100989008F081209B5EF70FAC2B0C2B1C2B28508B8
:070999008000D2B2C2B222BD
:1009B500E4F509F50AC2B0D2B1D2B200E58054809F
:0309C500FFC2B2BC
:0109C800220C
:0609A000AE071FEE600E21
:0C09A6007508027509EFD509FDD508FAA7
:0309B20080EC22B4
:10090900BC000BBE0029EF8DF084FFADF022E4CCD2
:10091900F875F008EF2FFFEE33FEEC33FCEE9DEC9B
:10092900984005FCEE9DFE0FD5F0E9E4CEFD22EDE1
:10093900F8F5F0EE8420D21CFEADF075F008EF2F2B
:10094900FFED33FD4007985006D5F0F222C398FD1C
:050959000FD5F0EA22B9
:00000001FF
